:020000040000fa
:080000000002040000000000f2
:020000040000fa
:100400008f812000007f2400000188000000000090
:100410000c000700c0372000010020001100070079
:10042000000020000000e000020032000000020096
:1004300000000000d8020200000000000040da00c6
:100440000000fe004440a900000020000000e00081
:100450000300320000002000a00188004440a800f2
:100460000000060091018800800078000000eb0089
:1004700015003700e280400032a0b4009101ba00bc
:10048000e280400032a0b4009102ba00e280400055
:1004900032a0b4000002eb00472bde00f507b200eb
:1004a000602ce10004003a000059eb008301e900f0
:1004b000fdff3e00040037006128e100010032002a
:1004c0000082eb00040007001101ba000200e00006
:1004d000e8ff3a00000006003159ba008301e90044
:1004e0000c0032002159ba008301e90008003200f3
:1004f0000400e00003003a00e280400032a0b400b3
:10050000f5ff370011d9ba008301e900faff3a007c
:100510008100e800e180400032a0b4000000060045
:100520000021ef0011088800200888000000060064
:100530008460a900e7416000c419dd00510a200071
:1005400091407800f2c8b30082c0600083c07000a0
:100550008000fd00a5e0b7008000fd00680060009d
:100560004300de004300dd00410920009140780097
:100570000134a10080c070000100780094e0b70051
:040580000000060071
:020000040000fa
:0200000401f009
:04000c00fbff0000f6
:020000040000fa
:0200000401f009
:04001000bdff000030
:020000040000fa
:0200000401f009
:040014007fff00006a
:020000040000fa
:100008009603000096030000960300009603000084
:100018009603000096030000960300009603000074
:100028009603000096030000960300009603000064
:100038009603000096030000960300009603000054
:020000040000fa
:020000040000fa
:1005840000102e00a04088001628ef00c00a2000aa
:10059400904088008100280001118800014020005b
:1005a4001111880040118800000006000000eb00d3
:1005b4002016880060168800f0fe2f0000168800c0
:1005c40040168800003c2000601988000e000700d7
:1005d400ebff07002d00070002802000110120001e
:1005e400060037001200fb002011880023c2bf0060
:1005f4000018a300fdff3a000201e8008100e900b1
:10060400f8ff3a00f4ff370045e7a90045c7bf00eb
:10061400f1c8b300014060000043b30045e7b700f0
:100624004567a90045c7bf0081cfb3000140600002
:1006340045e7b70044c7bf00f043b20044e7b70042
:1006440044c7bf00f8c050000140600044e7b70051
:10065400303a800001e02f0001006000e001b300a7
:10066400303a880040a7a90001c3b30043c7bf00c4
:100674000047b200814f5000fcff3a0042c7bf0060
:100684000058a300fdff3200000006002174200082
:1006940052042000730520008248780083487800c3
:1006a40042c7a900a4c6bf0001ceb3000140600048
:1006b4006040b300a4e6b700c5c6bf0001406000b7
:1006c4003040b300c5e6b700217420005204200076
:1006d40073052000824878008348780042c7a80048
:1006e40001c4290090f82f008cff070040ff2f0061
:0406f4008eff37003e
:020000040000fa
:1006f8000008000010000000020000000a0d480079
:10070800656c6c006f2057006f726c0064210000ec
:1007180000000000100800000800000000000000b1
:0407280000000000cd
:020000040000fa
:04072c000000fe00cb
:00000001FF
